:020000040800F2
:1000000000000220D9850008E93B0008EB3B00080E
:10001000ED3B0008EF3B0008F13B0008000000004A
:10002000000000000000000000000000F33B00089A
:10003000F53B000800000000F73B0008F93B000812
:1000400029860008298600082986000829860008D4
:1000500029860008298600082986000829860008C4
:1000600029860008298600085D3C000829860008CA
:1000700029860008298600082986000829860008A4
:10008000298600082986000829860008000000004B
:1000900000000000000000000000000029860008A9
:1000A0002986000829860008298600082986000874
:1000B000298600082986000829860008313C0008A6
:1000C0004D3C00082986000829860008693C000884
:1000D00029860008013C0008113C000800000000CF
:1000E00029860008298600082986000800000000EB
:1000F0000000000000000000000000002986000849
:1001000000000000298600082986000829860008CA
:1001100000000000000000000000000000000000DF
:1001200029860008298600082986000829860008F3
:100130002986000800000000000000000000000008
:1001400000000000000000000000000029860008F8
:10015000298600082986000829860008213C000815
:100160002986000829860008000000000000000021
:10017000000000000000000000000000000000007F
:1001800000000000298600080000000000000000B8
:080190002986000829860008F9
:1001A0000348044B834202D0034B03B11847704706
:1001B0006800002068000020000000000548064B91
:1001C0001B1AD90F01EBA301491002D0034B03B155
:1001D00018477047680000206800002000000000F9
:1001E00010B5064C237843B9FFF7DAFF044B13B17F
:1001F0000448AFF300800123237010BD6800002085
:1002000000000000009D000808B5044B1BB1044924
:100210000448AFF30080BDE80840CFE700000000CD
:100220006C000020009D000810F8012B11F8013B24
:10023000012A28BF9A42F7D0D01A7047034613F814
:10024000012B002AFBD1181A01387047000000006A
:1002500001F0FF01102A2BDB10F0070F08D010F877
:10026000013B013A8B422DD010F0070F42B3F6D17B
:10027000F0B441EA012141EA014122F007047FF094
:1002800000070023F0E80256083C85EA010586EAEB
:10029000010685FA47F5A3FA87F586FA47F6A5FA27
:1002A00087F68EB9EED1F0BC01F0FF0102F0070233
:1002B00032B110F8013B013A83EA010313B1F8D1DE
:1002C0000020704701387047002D06BF35460338BF
:1002D000073815F0010F07D1013015F4807F02BFF8
:1002E000013015F4C03F0130F0BC0138704700BF49
:1002F00053B94AB9002908BF00281CBF4FF0FF318D
:100300004FF0FF3000F09CB9ADF1080C6DE904CE60
:1003100000F006F8DDF804E0DDE9022304B07047E0
:100320002DE9F04782B00646DDF828E00846B446DD
:100330000D46002B4ED18A4214466DD9B2FA82F294
:1003400042B1C2F12003954026FA03F394401D43C5
:1003500006FA02FC260CA7B2B5FBF6F14FEA1C43E5
:1003600006FB115543EA054301FB07F0984209D902
:10037000E31801F1FF3580F00381984240F20081DB
:10038000023923441B1A1FFA8CFCB3FBF6F006FB60
:1003900010334CEA034C00FB07F363450AD914EB16
:1003A0000C0C00F1FF3580F0ED80634540F2EA80EF
:1003B000A444023840EA0140ACEB030C0021BEF13A
:1003C000000F04D02CFA02F30022CEE9003202B072
:1003D000BDE8F0878B4209D9BEF1000F01D0CEE90C
:1003E00000610021084602B0BDE8F087B3FA83F14E
:1003F000174600294DD1834202D3B24200F20F8149
:10040000B6EB070C60EB030301201D46BEF1000FA5
:10041000DDD0CEE900C5DAE7002A00F098801A4660
:10042000B4FA84F3002B40F0AF800B1B270CA6B26C
:100430000121B3FBF7F54FEA1C4007FB153340EAF7
:10044000034306FB05F8984507D9E31805F1FF308B
:1004500002D2984500F2E8800546A3EB08031FFA94
:100460008CFCB3FBF7F007FB10334CEA034C06FBA4
:1004700000F3634508D914EB0C0C00F1FF3602D2EF
:10048000634500F2CE803046ACEB030C40EA0540F9
:1004900095E7C1F120058B4022FA05FC4CEA030CDC
:1004A00000FA01F426FA05F3E84002FA01F943EAFA
:1004B00004084FEA1C4206FA01FAB0FBF2F71FFAF1
:1004C0008CF602FB17004FEA184444EA004407FB8D
:1004D00006F0A0420AD91CEB040407F1FF3380F0B8
:1004E0009C80A04240F29980023F6444241A1FFA83
:1004F00088F3B4FBF2F002FB104443EA044300FB30
:1005000006F69E4209D91CEB030300F1FF3480F08C
:1005100082809E427FD90238634440EA0740A0FBB4
:1005200009749B1BA3423E46A04664D361D0BEF132
:10053000000F0AD0BAEB060263EB080303FA05F5D5
:10054000CA401543CB40CEE9005300213FE7730872
:1005500043EAC1734A08190C41EA02414FEAC67CDA
:100560009BB2B2FBF4F02646A04627461F2243EA80
:100570000143B1FBF4F1A3EB080341EA004158E762
:100580002946FFE6284615E71A46C3F120019C409C
:1005900026FA01F320FA01F190400343270C06FAF2
:1005A00002FCB1FBF7F0A6B207FB1015190C41EAEB
:1005B000054100FB06F58D423BD9611801D28D4201
:1005C00020D8491B0138B1FBF7F5019505FB06F86A
:1005D000019D9BB207FB151143EA0143434526D217
:1005E000E31805F1FF31C6D24345C4D2A91E234406
:1005F000C1E7BA459BD2B7EB090664EB0C0401389E
:10060000A04694E7651B29440238B1FBF7F5019534
:1006100005FB06F8DCE720467FE71F4666E708464D
:10062000F4E6A44402382FE7023D234415E701997C
:10063000A1E7491BB1FBF7F5019505FB06F8C7E7F4
:10064000704700BF72B6FEE710B594B008AC302218
:100650000021204608F06AFA0023039304930593CF
:100660000693079301931E4A116C41F08051116467
:10067000126C02F080520192019A0293194A116899
:1006800041F440411160126802F440420292029A21
:100690000222089201210B9110210C910E920F93CE
:1006A000082310936423119312920423139320467A
:1006B00007F08CF978B90F23039302230493059074
:1006C0004FF4805206920790032103A807F0EAFB3B
:1006D00018B914B010BDFFF7B5FFFFF7B3FF00BFA7
:1006E000003802400070004008B507F0CBFEFFF76D
:1006F000ABFF00F007F800F049F800F077F900F0E0
:1007000071FCFCE786B0002200921F4B196B41F090
:1007100001011963196B01F0010100910099019227
:10072000196B41F002011963196B01F0020101918B
:1007300001990292196B41F004011963196B01F0E0
:100740000401029102990392196B41F008011963A7
:10075000196B01F00801039103990492196B41F0A0
:1007600010011963196B01F01001049104990592AD
:100770001A6B42F080021A631B6B03F0800305932F
:10078000059B06B0704700BF0038024008B50A4814
:100790000A4B03604FF4E133436000238360C3607E
:1007A00003610C2242618361C36103F0ADFB00B9B8
:1007B00008BDFFF747FFFBE71401002000100140D0
:1007C00000B58DB000230793089309930A930B9308
:1007D00003684A4A934207D0494A934231D0494A72
:1007E00093425CD00DB000BD00210191464B1A6CC4
:1007F00042F400321A641A6C02F400320192019A37
:1008000002911A6B42F001021A631B6B03F00103A1
:100810000293029B0C23079302230893012309935D
:1008200003230A9307230B9307A9384807F010FC0A
:1008300000221146262007F0D7FD262007F0E4FD10
:10084000D0E700210391304B5A6C42F010025A64F9
:100850005A6C02F010020392039A04911A6B42F050
:1008600001021A631B6B03F001030493049B4FF412
:10087000C0630793022308930123099303230A9378
:1008800007230B9307A9214807F0E2FB002211463A
:10089000252007F0A9FD252007F0B6FDA2E70021DD
:1008A0000591194B5A6C42F020025A645A6C02F0BE
:1008B00020020592059A06911A6B42F001021A6312
:1008C0001B6B03F001030693069B4FF4C053079381
:1008D000022308930123099303230A9308230B930C
:1008E00007A90A4807F0B4FB00221146472007F089
:1008F0007BFD472007F088FD74E700BF00440040FF
:100900000010014000140140003802400000024085
:10091000044B188880B2044B1B889BB2C01A18BFC6
:10092000012070475E0100205C0100200D4B1A88F9
:1009300092B20D4B1B889BB29A4210D00A4A138880
:100940009BB20A49C85CC0B213889BB201335942BA
:10095000DBB2C9B258BF4B429BB213807047002034
:10096000704700BF5E0100205C0100206001002094
:1009700008B5124B984200D008BD114B1B889BB2A2
:1009800001335A42DBB2D2B258BF53429BB20D4A36
:10099000128892B29A420AD00948028892B20A4951
:1009A0000978C9B2DFF824C00CF8021003800122D4
:1009B0000549024803F097FDDEE700BF140100205F
:1009C0005E0100205C010020600200206001002028
:1009D00010B50446FFF732FC012382B221460248DB
:1009E00003F0C2FA10BD00BF140100202DE9F0434E
:1009F0008FB000240094324D2B6B43F001032B6326
:100A00002B6B03F001030093009B01942B6B43F0CD
:100A100002032B632B6B03F002030193019B0294EF
:100A20002B6B43F004032B632B6B03F00403029343
:100A3000029B09A909944C608C60CC600C614FF456
:100A40000058CDF8248001260A961E4F384607F03C
:100A5000FFFA822221461C4808F068F8DFF87C90F3
:100A60004FF480722146484608F060F8682389F800
:100A70007530582389F8D03003942B6B43F004036E
:100A80002B632B6B03F004030393039B04A90494CF
:100A90004C608C60CC600C61CDF8108005963846B7
:100AA00007F0D6FA32460949094803F01CFD094807
:100AB000FFF78EFF0848FFF78BFF0FB0BDE8F0830C
:100AC000003802400008024064020020600200205A
:100AD00014010020A89D0008AC9D0008E802002039
:100AE0000FB410B5A2B024AB53F8042B019302ACA1
:100AF0008021204607F0FCFF2046FFF769FF22B067
:100B0000BDE8104004B0704770B5A0B004460D4673
:100B100040F221120021284608F008F87F222146E1
:100B2000684608F038F81449684608F047F800B3FA
:100B30000146002301E0EC540133CC5C74B1A4F114
:100B40006102D2B2192AF6D8203CE4B2F3E70134AC
:100B50001F2205EB441008F01EF8E4B206490020FD
:100B600008F02CF8014608B1072CF0D985F820418F
:100B7000012020B070BD00BFCC9D000800B5CBB0F7
:100B800001A9FFF7C1FF78B19DF8043063B1854931
:100B900001A8FFF749FB20B1834901A8FFF744FBF7
:100BA00020B901A800F06CFA4BB000BD7F4901A844
:100BB000FFF73AFB20B17E4901A8FFF735FB18B9D2
:100BC00001A800F003FBEFE77A4901A8FFF72CFB2F
:100BD00020B1794901A8FFF727FB18B901A800F057
:100BE00083FBE1E7754901A8FFF71EFB20B17449BB
:100BF00001A8FFF719FB18B901A800F021FCD3E701
:100C0000704901A8FFF710FB20B16F4901A8FFF759
:100C10000BFB18B901A800F03DFCC5E76B4901A822
:100C2000FFF702FB20B16A4901A8FFF7FDFA18B9E6
:100C300001A800F059FCB7E7664901A8FFF7F4FAEC
:100C400020B1654901A8FFF7EFFA18B901A800F033
:100C50007DFCA9E7614901A8FFF7E6FA20B16049E8
:100C600001A8FFF7E1FA18B901A800F0A5FC9BE77D
:100C70005C4901A8FFF7D8FA20B15B4901A8FFF74A
:100C8000D3FA18B901A802F0D5FA8DE7574901A89F
:100C9000FFF7CAFA20B1564901A8FFF7C5FA18B9FB
:100CA00001A802F00FFC7FE7524901A8FFF7BCFA48
:100CB00020B1514901A8FFF7B7FA18B901A802F00D
:100CC000C7FC71E74D4901A8FFF7AEFAB8B14C492E
:100CD00001A8FFF7A9FAB0B14A4901A8FFF7A4FAA1
:100CE000A8B1494901A8FFF79FFA20B1474901A8D7
:100CF000FFF79AFA78B901A802F062FE54E701A85A
:100D000002F0B8FD50E701A802F0D6FD4CE701A8BB
:100D100002F05AFB48E73E4901A8FFF785FA20B1E7
:100D20003C4901A8FFF780FA18B901A801F060FA60
:100D30003AE7394901A8FFF777FA20B1374901A806
:100D4000FFF772FA18B901A801F05EFC2CE73449EC
:100D500001A8FFF769FA20B1324901A8FFF764FA48
:100D600018B901A801F0F8FC1EE72F4901A8FFF708
:100D70005BFA20B12D4901A8FFF756FA18B901A86E
:100D800001F084FD10E72A4901A8FFF74DFA28B1C8
:100D9000284901A8FFF748FA00284DD101A801F021
:100DA00039FE01E7D09D0008DC9D0008E09D0008A9
:100DB000EC9D0008F09D0008FC9D0008009E0008C6
:100DC0000C9E0008109E0008189E00081C9E00083B
:100DD000289E00082C9E0008389E00083C9E0008B3
:100DE000489E00084C9E0008589E00085C9E000823
:100DF000889F0008689E0008749E0008789E00087E
:100E0000849E0008909E00089C9E0008A89E0008F2
:100E1000AC9E0008B89E0008BC9E0008C89E000852
:100E2000CC9E0008D89E0008DC9E0008EC9E0008BE
:100E3000F09E0008F89E0008534901A8FFF7F4F956
:100E400068B1524901A8FFF7EFF920B1504901A854
:100E5000FFF7EAF938B901A800F0C6FCA4E601A83A
:100E600001F09EFEA0E64B4901A8FFF7DDF920B195
:100E7000494901A8FFF7D8F918B901A800F0E6FD23
:100E800092E6464901A8FFF7CFF920B1444901A8ED
:100E9000FFF7CAF918B901A800F01EFE84E641491F
:100EA00001A8FFF7C1F920B13F4901A8FFF7BCF93C
:100EB00018B901A800F0A0FE76E63C4901A8FFF7AA
:100EC000B3F920B13A4901A8FFF7AEF918B901A862
:100ED00000F064FF68E6374901A8FFF7A5F920B1E3
:100EE000354901A8FFF7A0F918B901A800F00CFFD7
:100EF0005AE6324901A8FFF797F920B1304901A815
:100F0000FFF792F918B901A800F022FF4CE62D492D
:100F100001A8FFF789F918B901A800F0E7FF43E637
:100F2000294901A8FFF780F920B1284901A8FFF756
:100F30007BF918B901A801F06DFF35E6244901A835
:100F4000FFF772F920B1234901A8FFF76DF918B92D
:100F500001A802F03DF827E61F4901A8FFF764F950
:100F600018B901A802F04EF81EE61C4901A8FFF7C7
:100F70005BF918B901A802F0A1F815E601A9184813
:100F8000FFF7AEFD10E600BFFC9E0008089F0008BA
:100F9000149F0008189F0008249F0008289F00083D
:100FA000349F0008389F0008449F0008489F0008AD
:100FB000589F00085C9F0008689F00086C9F00080D
:100FC0007C9F0008809F00088C9F0008949F000869
:100FD000989F0008A09F0008849F0008A49F000815
:100FE000AC9F000838B503E0214B93F88030EBB993
:100FF000FFF78EFC002837D0FFF798FC0D28F3D0C0
:101000000A28F1D0082822D07F2820D0A0F1200380
:10101000DBB25E2BECD8164B93F880307E2BE7D8F2
:10102000134A591C82F88010D054E1E71148FFF7A9
:10103000CFFC0F4C94F880300025E5542046FFF794
:101040009DFD84F880500C48FFF7C2FCD0E7084BA8
:1010500093F88030002BCBD0013B054A82F88030DA
:101060000648FFF7B5FCC3E701F096FE38BD00BFA8
:1010700064020020A89D0008CC9F0008D09F0008B3
:101080002DE9F04192B090F820315BB100F12003DE
:1010900098460DF1420211A9184602F032FD28B11E
:1010A000002309E03E48FFF793FC74E041463D48C9
:1010B000FFF716FD6FE001330F2B08DCBDF842206F
:1010C0001A4112F0010FF6D05FFA83FC01E04FF0F5
:1010D000000C119C23684FEA4C05EB4003F003061B
:1010E000DFF8E4E09EE80F000CAF87E80F006368CC
:1010F00023FA0CF303F001070AAB0EF1100292E899
:10110000030083E80300A368EB4003F003030193AB
:101110000DF1180C0EF118030FCB8CE80F00E368EB
:10112000EB4003F003050DF1080C0EF1280E9EE8CC
:101130000F008CE80F00BDF84210204607F078F849
:10114000044641461848FFF7CBFC12AA02EB86037F
:1011500053F8181C1548FFF7C3FC12AA02EB8703CB
:1011600053F8201C1248FFF7BBFC12AA019B02EBAC
:10117000830353F8301C0F48FFF7B2FC12AB03EBAC
:10118000850353F8401C0C48FFF7AAFC34B10B4907
:101190000B48FFF7A5FC12B0BDE8F0810949F7E75D
:1011A000D49F000804A0000820A000082CA000087C
:1011B0003CA000084CA000085CA00008049E0008A9
:1011C0006CA00008149E0008189D000810B58CB093
:1011D00090F8203133B300F120031C460DF12A02B0
:1011E0000BA9184602F08DFC00B30B98354B9842C2
:1011F00021D0354B98423ED0344B984248D0344BA6
:10120000984252D0334B984221D100230493324B61
:101210001A6B42F010021A631B6B03F01003049365
:10122000049B14E02D48FFF7D3FB22E021462C4815
:10123000FFF756FC1DE000230093274B1A6B42F08A
:1012400001021A631B6B03F001030093009B05A9C5
:10125000002305934B608B60CB600B61BDF82A3097
:1012600005930123069306F0F3FE21461D48FFF780
:1012700037FC0CB010BD00230193174B1A6B42F0E2
:1012800002021A631B6B03F002030193019BDEE76A
:1012900000230293104B1A6B42F004021A631B6B7B
:1012A00003F004030293029BD1E7002303930A4B4C
:1012B0001A6B42F008021A631B6B03F008030393D6
:1012C000039BC4E700000240000402400008024003
:1012D000000C024000100240003802407CA00008D0
:1012E00004A0000898A0000870B58CB090F82031D8
:1012F0003BB3044600F120031E460DF12A020BA960
:10130000184602F0FEFB00B30B9D424B9D4221D0DC
:10131000414B9D423DD0414B9D4247D0404B9D4269
:1013200051D0404B9D4221D1002304933E4B1A6B78
:1013300042F010021A631B6B03F010030493049B2A
:1013400014E03A48FFF744FB5DE031463848FFF7C8
:10135000C7FB58E000230093334B1A6B42F00102A5
:101360001A631B6B03F001030093009B94F8203178
:10137000012B35D940342F492046FEF755FF002870
:1013800043D02D492046FEF74FFF00283FD00022D2
:1013900027E000230193244B1A6B42F002021A63E8
:1013A0001B6B03F002030193019BDFE70023029311
:1013B0001D4B1A6B42F004021A631B6B03F004030B
:1013C0000293029BD2E700230393174B1A6B42F060
:1013D00008021A631B6B03F008030393039BC5E722
:1013E000002205A9002305934B608B60CB600B6145
:1013F000BDF82A3005930792284606F029FE3146AB
:101400000E48FFF76DFB0CB070BD0122E9E7022228
:10141000E7E700BF0000024000040240000802406D
:10142000000C02400010024000380240B8A0000842
:1014300004A00008A89E0008E4A00008ECA0000892
:1014400010B582B090F82031ABB100F120031C46FA
:101450000DF1020201A9184602F053FB78B10122F6
:10146000BDF80210019806F0EAFE21460648FFF793
:1014700037FB02B010BD0548FFF7AAFAF9E721468D
:101480000348FFF72DFBF4E724A100080CA1000896
:1014900004A0000810B582B090F82031ABB100F183
:1014A00020031C460DF1020201A9184602F029FB97
:1014B00078B10022BDF80210019806F0C0FE214666
:1014C0000648FFF70DFB02B010BD0548FFF780FA94
:1014D000F9E721460348FFF703FBF4E74CA10008B6
:1014E00034A1000804A0000810B582B090F82031A3
:1014F000B3B100F120031C460DF1020201A9184608
:1015000002F0FFFA80B1BDF80210019806F090FEDB
:1015100078B1094A21460948FFF7E2FA02B010BD46
:101520000748FFF755FAF9E721460648FFF7D8FACA
:10153000F4E7054AEEE700BF049E000874A1000826
:101540005CA1000804A00008149E000810B582B039
:1015500090F82031DBB100F120031C460DF10202AE
:1015600001A9184602F0CDFAA8B1BDF80210019801
:1015700006F06BFEBDF80210019806F059FE78B136
:10158000084A21460848FFF7ABFA02B010BD0748E9
:10159000FFF71EFAF9E721460548FFF7A1FAF4E73D
:1015A000044AEEE7049E00089CA1000880A1000800
:1015B00004A00008149E000870B58CB090F820318B
:1015C000012B27D9044600F120031E460DF12A0203
:1015D0000BA9184602F095FA00B30B9D464B9D42AD
:1015E00021D0464B9D424CD0454B9D4256D0454B59
:1015F0009D4260D0444B9D4221D100230493434B34
:101600001A6B42F010021A631B6B03F01003049371
:10161000049B14E03E48FFF7DBF930E031463D48DB
:10162000FFF75EFA2BE000230093384B1A6B42F071
:1016300001021A631B6B03F001030093009B00235C
:1016400005930693079308930993BDF82A300593F1
:10165000403431492046FEF7E7FD38B12F49204696
:10166000FEF7E2FD002833D10123069305A92846A1
:1016700006F0EEFC224631462948FFF731FA0CB05D
:1016800070BD00230193214B1A6B42F002021A63D2
:101690001B6B03F002030193019BD0E7002302932D
:1016A0001A4B1A6B42F004021A631B6B03F004031B
:1016B0000293029BC3E700230393144B1A6B42F07F
:1016C00008021A631B6B03F008030393039BB6E73E
:1016D00014492046FEF7A8FD10B902230693C5E77A
:1016E00011492046FEF7A0FD10B903230693BDE77C
:1016F0000E48FFF76DF9C2E7000002400004024007
:1017000000080240000C0240001002400038024075
:10171000B4A1000804A0000878A20008E89D000811
:1017200010A20008DCA10008E0A10008E4A1000864
:1017300010B504460A49FEF777FD68B1094920460D
:10174000FEF772FD50B108492046FEF76DFD08B95D
:10175000064802E0002000E0054810BD0548FCE70F
:10176000A0A20008A4A20008A8A200082C0400203F
:10177000D40400208004002000B587B0002301932A
:101780000293039304930593134B984201D007B03F
:1017900000BD00230093114B1A6B42F002021A6342
:1017A0001B6B03F002030093009BC02301931223E1
:1017B00002930123039303230493042305930DEB66
:1017C0000301074806F044FC064AD2F8003423F42B
:1017D0008053C2F80034DAE7005400400038024079
:1017E00000040240005000402DE9F04385B090F81D
:1017F0002031022B73D9044600F120031F461846FE
:1018000006F013FF8046431E9946022B73D83846D4
:10181000FFF78EFF054600286AD004F140031E46FC
:101820007149184607F08AF900286CD06F49304694
:1018300007F084F9002862D104F1600006F0F5FE9B
:101840000646A0F57A726A4B9A4265D80024694B25
:101850009D4265D0684B9D4273D0684B9D4200F01D
:101860008180284604F00BFC654B6B600023AB6065
:101870004FF480422A616B61AB61EB612B62002CFB
:1018800040F081806E60EC60284604F00BFB00287D
:1018900040F08280002C00F08380284605F006FA94
:1018A000324641465748FFF71BF91021284606F0FB
:1018B0004CF80021284606F069F8002C76D1524BEE
:1018C00003F80940494A39465048FFF709F9002C06
:1018D00000F0848031464E48FFF702F908E04D4899
:1018E000FFF776F84C48FFF773F84C48FFF770F8AD
:1018F00005B0BDE8F0834A48FFF76AF8F8E74948C1
:10190000FFF766F8F4E71022014604F1600006F0E4
:101910000BFF064601249AE74348FFF759F8E7E72B
:1019200000230193414B1A6C42F400121A641B6CA1
:1019300003F400130193019B3D482860FFF71CFF4F
:101940008FE700230293394B1A6C42F480021A6429
:101950001B6C03F480030293029B36482860FFF758
:101960000BFF7EE700230393304B1A6C42F4000216
:101970001A641B6C03F400030393039B2E48286036
:10198000FFF7FAFE6DE77300EB604FF48072002101
:101990002A4807F0CBF877E72948FFF719F8A7E7B7
:1019A000324641462748FFF79BF87EE70022012197
:1019B0001F2006F019FD1F2006F026FD0022012140
:1019C000202006F011FD202006F01EFD284605F01F
:1019D0006DF90D4B03F80940034A74E731461A4884
:1019E000FFF77EF884E700BFACA20008B4A20008AD
:1019F00098160600D4040020800400202C04002047
:101A0000A0860100FCA300082804002044A40008CC
:101A100064A40008BCA20008FCA2000830A30008CF
:101A200068A3000890A30008B8A30008003802408B
:101A30000054004000580040005C0040E8020020D4
:101A4000E0A3000824A4000878A4000870B590F86A
:101A500020317BB100F120042046FFF769FE0646E5
:101A600060B1036853B121461548FFF739F80124E6
:101A7000002509E01348FEF7ABFF02E01248FEF72D
:101A8000A7FF70BD0134A4B27F2C0FD8610089B2CA
:101A900002231A46304604F0A1FF0028F2D1214665
:101AA0000A48FFF71DF80135EDB2EBE71DB908480C
:101AB000FEF78EFFE5E729460648FFF711F8E0E755
:101AC000D8A400088CA40008A4A40008F0A400086E
:101AD0000CA5000820A500082DE9F043B3B090F84C
:101AE0002031022B1FD9054600F12004204606F0C4
:101AF0009CFD431E1F46022B1ED82046FFF718FEF2
:101B00008046E8B10368DBB11022002105F14000F6
:101B100006F00AFE83B299468022002112A807F03F
:101B200005F802241DE02A48FEF752FF2948FEF777
:101B30004FFF33B0BDE8F0832748FEF749FFF8E7D1
:101B40002648FEF745FFF4E712AE3046FEF776FB77
:101B5000234B1B883352013405EB441112A807F0C4
:101B60000BF895F82031A34202DD022CF3DDEBE700
:101B7000402202A912A801F0F4FF044698B1194BC3
:101B8000DB5DA3B11848FEF723FF41F288332246FC
:101B900002A9404604F0D2FC0146A9B921461348E7
:101BA000FEF79EFFC5E71248FEF712FFC1E74B465E
:101BB000590089B24FF47A730093034602AA404653
:101BC00004F076FA0146E8E70A48FEF789FFB0E735
:101BD00044A5000870A5000894A50008B4A5000855
:101BE000D4A5000828040020F4A5000814A60008C5
:101BF000D8A5000834A60008F0B595B090F82031BB
:101C0000022B31D9044600F120031D46184606F088
:101C10000CFD431E1E46022B2ED82846FFF788FDDA
:101C2000054668B303685BB31022002104F140004D
:101C300006F07AFD83B21F4604F1600006F0F5FC61
:101C400084B2402C00D940244122002103A806F090
:101C50006DFF224B9B5DDBB1284605F027F898B954
:101C60001F48FEF7B5FE05E01E48FEF7B1FE1E4810
:101C7000FEF7AEFE15B0F0BD1C48FEF7A9FEF9E771
:101C80001B48FEF7A5FEF5E71A48FEF7A1FEF1E7AF
:101C9000780081B24FF47A730093234603AA284652
:101CA00004F0C6FA0146A8B9254621461248FEF7B7
:101CB00017FF002408E004F150036B4413F8441CA0
:101CC0000E48FEF70DFF0134A542F4DC0C48FEF788
:101CD0007FFECFE70B48FEF703FFCBE72804002089
:101CE000BCA6000858A6000880A6000894A5000815
:101CF000B4A50008A0A60008DCA60008F0A600080D
:101D0000A89D0008F8A6000838B590F82031012BEE
:101D100014D9044600221146203006F07DFD054608
:101D20000022114604F1400006F076FDC2B2E9B28D
:101D3000044B5A540448FEF7D3FE38BD0348FEF75F
:101D400047FEFAE7E802002040A700081CA70008A9
:101D500038B590F82031012B15D9044600221146E0
:101D6000203006F059FDC5B2C5F5807292B208491F
:101D7000294404F1400001F0F4FE01462A460548DA
:101D8000FEF7AEFE38BD0448FEF722FEFAE700BFBC
:101D9000E802002088A700085CA700082DE9F041B0
:101DA000A6B090F82031032B44D904462030FFF729
:101DB000BFFC0546002844D00368002B41D0102208
:101DC000002104F1400006F0AFFC804683B21F46BC
:101DD000402216A904F1600001F0C3FE064604F19A
:101DE000800006F022FC84B2402C00D9402441221D
:101DF000002105A806F09AFE012E26D0022E34D02E
:101E00007B009BB219461F464FF47A73009333460A
:101E100016AA284604F04CF90146002839D14FF49F
:101E20007A730093234605AA3946284604F000FA3F
:101E300001462DE02648FEF7CBFD2648FEF7C8FDFB
:101E40002AE02548FEF7C4FD26E0790089B24FF468
:101E50007A730293019405AB009301239DF85820F7
:101E6000284604F037FC014612E09DF858009DF822
:101E70005920790089B24FF47A730293019405AB2B
:101E80000093102342EA0022284604F023FC014676
:101E900029B11248FEF724FE26B0BDE8F0812546A0
:101EA0001FFA88F221460E48FEF71AFE002408E0C9
:101EB00004F198036B4413F8841C0A48FEF710FEE3
:101EC0000134A542F4DC0848FEF782FDE4E700BFD8
:101ED000B4A70008F4A70008B4A5000850A800089B
:101EE00030A80008F0A60008A89D000870B58CB0C6
:101EF0002F48FEF76DFD2F4C94E807000CAB03E96B
:101F0000070006AB04F10C0207CA83E807006D4620
:101F100018340FCC0FC594E8030085E803000024B3
:101F200010E0254A21E0254A2548FEF7D9FD0CABF3
:101F300003EBC40353F82C2C53F8301C2148FEF754
:101F4000CFFD0134022C31DC0CAB03EB840353F8DE
:101F5000185C2B680BB31C4B1E5D0CAB03EB8403AE
:101F600053F80C1C002EDCD0184A1948FEF7B8FDB7
:101F70003EB1E96849082B69B3F5404FD3D0154A03
:101F8000D2E769682B69B3F5404F04D0114A124873
:101F9000FEF7A6FDCBE7094AF9E70CAB03EB840398
:101FA00053F80C1C0D48FEF79BFDCAE70CB070BD42
:101FB00088A80008509D0008B4A2000878A800086E
:101FC000B4A80008F8A8000828040020ACA2000863
:101FD00098A8000880A80008D4A8000810A9000844
:101FE00008B501290BD00A4B1978C1F5807220235E
:101FF00092B2DFF828C0614404F0B4FD08BD054B7F
:1020000000221A7001231A46034904F0FDFDF5E78A
:10201000E7020020E6020020E8030020E80200209A
:1020200008B50F4B1B786BB90E4B19780E4B197016
:1020300001220B4B1A700423DFF830C0614404F016
:10204000E3FD08BD084B19780131C9B219700423AA
:102050000122DFF818C0614404F0D6FDF1E700BFAB
:10206000E6020020E8030020E7020020E80200204A
:10207000704708B504F01AFE08BD08B504F016FE56
:1020800008BD000010B504462349FEF7CDF880B323
:1020900022492046FEF7C8F868B321492046FEF7DA
:1020A000C3F850B31F492046FEF7BEF838B31E49A7
:1020B0002046FEF7B9F820B31C492046FEF7B4F8D5
:1020C00008B31B492046FEF7AFF8F0B11949204686
:1020D000FEF7AAF8D8B118492046FEF7A5F8C0B116
:1020E00016492046FEF7A0F808B9154802E000207E
:1020F00000E0144810BD1348FCE71348FAE7124803
:10210000F8E71248F6E71148F4E71148F2E71048FB
:10211000F0E70B48EEE700BF88A90008A0A200087E
:1021200090A90008A4A2000898A90008A8A2000885
:10213000A0A90008A8A90008ACA90008B4A9000833
:1021400034050020940600203C060020E405002011
:102150008C05002000B589B00023039304930593F8
:10216000069307931D4B984204D01D4B98421AD0FA
:1021700009B000BD002301931A4B1A6B42F0010213
:102180001A631B6B03F001030193019BF02303937C
:1021900002230493032306930523079303A91248FC
:1021A00005F056FFE4E7002302930E4B1A6B42F052
:1021B00010021A631B6B03F010030293029B4FF48F
:1021C000E043039302230493032306930623079318
:1021D00003A9064805F03CFFCAE700BF00300140F4
:1021E0000050014000380240000002400010024050
:1021F0002DE9F04393B090F82031022B58D90446D2
:1022000000F120063046FFF73DFF0546002865D067
:10221000304606F00AFA04F1600006F006FA0746B6
:10222000A0F16402AE4B9A425CD8AE4B9D425DD0A9
:10223000AD4B9D426BD0AD4B9D4279D0AC4B9D4296
:1022400000F08780AB4B9D4200F0948094F82031E1
:10225000012B40F2A08094F84030002B00F09B80CE
:1022600004F140039946A4491846FDF7DDFF804676
:10227000002840F024812A68A04B9A4200F08F8009
:1022800000236B604FF40073AB610023AB60EB6025
:1022900094F82031032B40F26581994904F18000C4
:1022A000FDF7C2FF002840F05D8102232B615BE156
:1022B0009448FEF78DFB9448FEF78AFB9348FEF79F
:1022C00087FB9348FEF784FB9248FEF781FB924818
:1022D000FEF77EFB9148FEF77BFB7FE19048FEF71F
:1022E00077FB7BE18F48FEF773FB77E100230093D8
:1022F0008D4B5A6C42F480525A645B6C03F48053E9
:102300000093009B7D482860FFF724FF9EE7002391
:102310000193854B1A6C42F480421A641B6C03F4DF
:1023200080430193019B81482860FFF713FF8DE7ED
:10233000002302937C4B1A6C42F400421A641B6C1B
:1023400003F400430293029B79482860FFF702FFE1
:102350007CE700230393744B5A6C42F400525A6496
:102360005B6C03F400530393039B72482860FFF7F0
:10237000F1FE6BE7002304936B4B5A6C42F480121E
:102380005A645B6C03F480130493049B6A482860CE
:10239000FFF7E0FE5AE76948FEF71AFB1EE10590D9
:1023A00003F584335A6C42F480525A645A6C02F436
:1023B00080520592059A06901A6B42F001021A6348
:1023C0001B6B03F001030693069B07AE0790089072
:1023D00009900A900B90E0230793022708970323A4
:1023E0000A9305230B933146554805F031FE10231F
:1023F0000793089705230B933146514805F028FEB3
:102400003E4B2B60C5F80480C5F80880C5F80C80E9
:10241000C5F81080C5F81480C5F81880C5F820806C
:10242000284602F0A0F9474B582283F850200CAC04
:10243000454E0FCE0FC496E8030084E803000BE07E
:10244000404608F1080308F148026A4412F8181CD3
:102450003C4AD154431C98464346172BF0DD394B78
:10246000502283F87720C32283F87820002483F851
:102470007940802283F87A2083F87B4083F87C407F
:102480000126324B1E7022460521232005F0ACFFA9
:10249000232005F0B9FF224605210A2005F0A4FFFC
:1024A0000A2005F0B1FF2A4958230B703346294A08
:1024B000284602F08DFC2848FEF78AFA8EE027496C
:1024C0004846FDF7B1FE30B94FF482736B604FF4AC
:1024D0000073AB61D9E62248FEF77AFA7EE000BFCE
:1024E0001CF0FA02940600203C060020E4050020BF
:1024F0008C05002034050020ACA20008003001400B
:10250000A0A20008B8A9000814AA00083CAA000864
:1025100070AA0008A4AA0008D8AA000818AB0008EE
:1025200058AB000880AB000800380240003800407B
:10253000003C00400034014000500140ACAB0008BA
:1025400000000240E802002010AC0008280500202E
:10255000300500202C050020D4AB0008B4A20008F0
:1025600090A3000800232B6194F82031042B08D994
:10257000224904F1A000FDF757FE10B901236B6159
:1025800001E000236B6100232B622A681C4B9A42F6
:1025900018D005F03DFDB7EB102F16D9B7EBD01FC3
:1025A0001FD9B7EB901F1ED9B7EB501F1DD9B7EB42
:1025B000101F1CD9B7EBD00F1BD9B7EB900F1AD84F
:1025C000082303E005F034FDE5E73823EB612846F6
:1025D00002F0C9F831460B48FEF782FA13B0BDE8A5
:1025E000F0833023F2E72823F0E72023EEE71823D7
:1025F000ECE71023EAE70023E8E700BFA0A2000809
:1026000000300140F4AB00082DE9F041B0B090F883
:102610002031012B16D9054600F120042046FFF792
:1026200031FD8046D8B10368CBB1204605F0FDFFEF
:10263000C7B2013FFFB28022002110A806F076FA4F
:10264000012418E03848FEF7C3F93848FEF7C0F90E
:102650003748FEF7BDF93748FEF7BAF902E03648C9
:10266000FEF7B6F930B0BDE8F081013405EB441156
:1026700010A806F081FA95F82031A34209DD012C5B
:10268000F3DD10AE3046FDF7D9FD2C4B1B883352DD
:10269000EBE7402269460DEB020001F062FA0546C5
:1026A00010B3274B03EBC7039B790BBB4FF47A7333
:1026B0002A466946404602F0B5F80446204B03EB33
:1026C000C7039B79F3B95CBB29461E48FEF708FA9D
:1026D000A54221DD04F1C0036B4413F8C01C1A4865
:1026E000FEF7FEF90134F3E71848FEF771F9B9E790
:1026F000134B03EBC7010022898853F8370005F01C
:102700009EFDD3E70E4B03EBC7010122898853F8E6
:10271000370005F094FDD6E70D48FEF759F9A1E71B
:102720000C48FEF755F99DE72CAC000850AC0008AA
:1027300074AC0008A0AC0008E4AC0008D4A5000804
:1027400000C0000818AD0008F0A60008D8A50008D1
:10275000A89D00082CAD0008F0B593B090F820318A
:10276000012B3ED9044600F120052846FFF78AFCDC
:10277000064600283FD00368002B3CD0284605F0D1
:1027800054FFC5B2013DEDB204F1400005F04DFF2C
:1027900083B21F46402B01D940231F4694F82031B5
:1027A000022B2DD84FF47A744122002101A806F0A3
:1027B000BDF92C4A02EBC50293793BBB23463A464E
:1027C00001A9304602F042FA0446264B03EBC5034A
:1027D0009B7923BB6CB3032C40D02348FEF7F8F859
:1027E0000CE02248FEF7F4F82148FEF7F1F8214802
:1027F000FEF7EEF802E02048FEF7EAF813B0F0BD6D
:1028000004F1600005F011FF0446CDE7154B1146B9
:102810000022898853F8350005F011FDCEE7114BF1
:1028200003EBC5010122898853F8350005F007FD47
:10283000D0E739463D461148FEF752F9A54209DD79
:1028400004F148036B4413F8441C0D48FEF748F9A3
:102850000134F3E70B48FEF7BBF8CFE70A48FEF771
:10286000B7F8CBE700C00008CCAD000848AD0008C1
:1028700078AD0008A0AC0008E4AC000898AD0008F2
:10288000F0A60008A89D0008B0AD00082DE9F041B1
:10289000C2B090F82031012B16D9054600F1200472
:1028A0002046FFF7EFFB8046D8B10368CBB1204646
:1028B00005F0BBFEC7B2013FFFB28022002122A873
:1028C00006F034F9012418E04448FEF781F8444842
:1028D000FEF77EF84348FEF77BF84348FEF778F8AA
:1028E00002E04248FEF774F842B0BDE8F0810134DE
:1028F00005EB441122A806F03FF995F82031A342D8
:1029000009DD012CF3DD22AE3046FDF797FC384B94
:102910001B883352EBE740242246002102A806F030
:1029200005F9224612A922A801F01BF9054640B379
:10293000304B03EBC7039B793BBB4FF47A73009397
:102940002B4602AA12A9404602F04EF80446294B33
:1029500003EBC7039B7913BB002C3BD129462648C8
:10296000FEF7BEF82548FEF733F8A54221DD04F551
:1029700084736B4413F8C01C2148FEF7B1F801348E
:10298000F3E72048FEF724F8AEE71A4B03EBC70144
:102990000022898853F8370005F051FCCDE7154B2C
:1029A00003EBC7010122898853F8370005F047FC83
:1029B000D2E71548FEF70CF80024A54206DD02AB6D
:1029C000195D0F48FEF78CF80134F6E70F48FDF764
:1029D000FFFF89E70E48FDF7FBFF85E7E4AD000840
:1029E0000CAE000834AE0008A0AC0008E4AC00084F
:1029F000D4A5000800C0000868AE00088CAE00082E
:102A0000F0A60008D8A5000894AE0008A89D00080C
:102A1000A0AE000830B58DB090F82031012B27D939
:102A2000044600F120031D460DF12A020BA91846A9
:102A300001F067F838B30B984A4B984228D04A4BBC
:102A4000984259D0494B984263D0494B98426DD037
:102A5000484B984228D100230493474B1A6B42F00D
:102A600010021A631B6B03F010030493049B1BE01A
:102A70004248FDF7ADFF4248FDF7AAFF4148FDF788
:102A8000A7FF0DB030BD29463F48FEF729F8F8E70B
:102A900000230093384B1A6B42F001021A631B6B40
:102AA00003F001030093009B05A9002305934B60ED
:102AB0008B60CB600B61BDF82A3005930123069330
:102AC0000323089305F0C4FA403430492046FDF74B
:102AD000ABFB002837D02E492046FDF7A5FB002888
:102AE0003CD10246BDF82A100B9805F0A8FB2946F8
:102AF0002848FDF7F5FFC4E7002301931E4B1A6B2E
:102B000042F002021A631B6B03F002030193019B64
:102B1000CAE700230293184B1A6B42F004021A63AF
:102B20001B6B03F004030293029BBDE70023039396
:102B3000114B1A6B42F008021A631B6B03F0080377
:102B40000393039BB0E70122BDF82A100B9805F010
:102B500076FB29461048FDF7C3FF92E70F48FDF7C3
:102B600037FF8EE7000002400004024000080240E8
:102B7000000C02400010024000380240BCAE0008C9
:102B8000E0AE00080CAF000804A00008049E000896
:102B9000149E000858AF000838AF000878AF00084E
:102BA00030B59FB03A48FDF713FF3A4C19ADA44633
:102BB000BCE80F000FC5DCF800302B6014AD1434F6
:102BC0000FCC0FC523682B603C22002105A805F01F
:102BD000ADFF314B0593314B0693314B0893314B8D
:102BE0000993314B0B93314B0C93314B0E93314B7B
:102BF0000F93314B1193314B1293002429E005F0D0
:102C000017FAEB69C3F3C20202239340B0FBF3F35C
:102C10001EAA02EB840252F8141C6A68B2F5827F85
:102C200025D0DFF8ACC004EB44001EAA02EB800004
:102C300050F8642C50F8600CED68B5F5006F19D0B1
:102C40001F4D02950190009262461E48FDF748FF15
:102C50000134042C19DC1EAB03EB840353F8285C0D
:102C60002B684BB1002CCAD005F0D2F9C9E7DFF8C8
:102C700064C0D8E7144DE4E71EAB03EB840353F8BC
:102C8000141C1248FDF72CFFE2E71FB030BD00BF57
:102C9000ACAF0008809D0008BCAF0008C8AF0008BA
:102CA000CCAF0008DCAF0008E4AF0008F0AF0008CC
:102CB000F8AF000804B0000808B0000818B0000819
:102CC000A4AF000820B000089CAF000810A90008BD
:102CD000ACA20008B4A2000808B50268164B9A42DC
:102CE00000D008BD154B1B78154A127882B903F045
:102CF0007F03144A1370124A01211170124AD25CE8
:102D0000124B1A7001230D4A104902F061F8E8E7EE
:102D10000C4A1378013303F07F0313700A4AD15C25
:102D20000A4A11707A2BEDD1074A92F87A300133B2
:102D300082F87A30E6E700BF003001402C05002021
:102D400029050020E7020020E802002030050020CD
:102D5000102800D0704708B50A4B1B6913F0100FFC
:102D600000D008BD0023084A1370084A13700848B1
:102D700002F098F80123074A0449054802F028F8B0
:102D8000EFE700BF000002402905002030050020C9
:102D9000940600202C050020064B1B6913F0100F31
:102DA00007D0054B00221A70044B93F8D020044B37
:102DB0001A7070470000024029050020E802002038
:102DC000300500200268074B9A4200D0704710B5CA
:102DD000044602F06FFA0123034A0449204601F039
:102DE000F7FF10BD003001402C0500203005002009
:102DF000BFF34F8F0549CA6802F4E062044B1343E6
:102E0000CB60BFF34F8F00BFFDE700BF00ED00E0D8
:102E10000400FA0508B54248FDF7DAFD4148FDF720
:102E2000D7FD4148FDF7D4FD4048FDF7D1FD4048AE
:102E3000FDF7CEFD3F48FDF7CBFD3F48FDF7C8FD50
:102E40003E48FDF7C5FD3E48FDF7C2FD3D48FDF794
:102E5000BFFD3D48FDF7BCFD3C48FDF7B9FD3C48D2
:102E6000FDF7B6FD3B48FDF7B3FD3B48FDF7B0FD70
:102E70003A48FDF7ADFD3A48FDF7AAFD3948FDF7A0
:102E8000A7FD3948FDF7A4FD3848FDF7A1FD3848F6
:102E9000FDF79EFD3748FDF79BFD3748FDF798FD90
:102EA0003648FDF795FD3648FDF792FD3548FDF7AC
:102EB0008FFD3548FDF78CFD3448FDF789FD34481A
:102EC000FDF786FD3348FDF783FD3348FDF780FDB0
:102ED0003248FDF77DFD3248FDF77AFD3148FDF7B8
:102EE00077FD3148FDF774FD3048FDF771FD30483E
:102EF000FDF76EFD2F48FDF76BFD2F48FDF768FDD0
:102F00002E48FDF765FD2E48FDF762FD2D48FDF7C3
:102F10005FFD2D48FDF75CFD2C48FDF759FD08BD10
:102F2000A89D000840B0000864B0000878B0000810
:102F3000C0B00008F0B0000834B1000860B100086B
:102F40008CB10008BCB10008E8B1000824B2000848
:102F500038B2000864B2000888B20008B4B20008B1
:102F6000D8B200080CB3000820B3000868B300080A
:102F700094B30008C8B3000800B4000824B40008E3
:102F800058B400088CB40008C0B40008D4B40008D9
:102F900018B500084CB5000884B50008B8B500089D
:102FA000F8B5000834B6000848B6000878B600083E
:102FB000A4B60008D4B6000800B7000814B700088B
:102FC00048B7000880B70008B0B70008ECB70008A1
:102FD00008B506490648FDF783FD0648FDF7F8FCED
:102FE000054A06490648FDF77BFD08BD38B80008CC
:102FF00040B8000858B800087CB8000888B8000835
:1030000094B8000808B52148FDF7E2FC05F060FA25
:1030100001461F48FDF764FD1E4B59681E48FDF729
:103020005FFD1E48FDF7D4FC1D4B1B6B13F0010F19
:1030300017D11B4B1B6B13F0020F16D1184B1B6BD8
:1030400013F0040F15D1164B1B6B13F0080F14D19E
:10305000134B1B6B13F0100F13D11248FDF7B8FC84
:1030600008BD1148FDF7B4FCE3E71048FDF7B0FCDC
:10307000E4E70F48FDF7ACFCE5E70E48FDF7A8FCD8
:10308000E6E70D48FDF7A4FCE7E700BFA4B8000899
:10309000C0B8000814010020D4B80008ECB800083B
:1030A00000380240A89D000808B9000814B90008BB
:1030B00020B900082CB9000838B9000808B5044840
:1030C000FDF786FC642005F009FAFFF791FE00BFCA
:1030D00044B9000810B504461549FDF7A5F8E0B15C
:1030E00014492046FDF7A0F8C8B113492046FDF762
:1030F0009BF8B0B111492046FDF796F898B11049F8
:103100002046FDF791F880B10E492046FDF78CF876
:1031100008B90D4802E0002000E00C4810BD0B4843
:10312000FCE70A48FAE70848F8E70748F6E700BF6F
:1031300054B900085CB90008A4A2000864B90008EA
:103140006CB9000874B9000884000020CC0000208D
:1031500000B589B000230393049305930693079366
:1031600003F1804303F58833984207D02D4B9842F2
:1031700020D02D4B984238D009B000BD00230093D9
:103180002A4B1A6B42F001021A631B6B03F0010316
:103190000093009B4FF4C063039302230493012325
:1031A0000593032306930723079303A9204804F0FC
:1031B0004FFFE1E7002301931C4B1A6B42F0010221
:1031C0001A631B6B03F001030193019B0C23039310
:1031D00002230493012305930323069307230793F4
:1031E00003A9134804F034FFC6E7002302930F4BF2
:1031F0001A6B42F001021A631B6B03F00103029386
:10320000029B4FF4C05303930223049301230593BD
:10321000032306930823079303A9054804F018FF26
:10322000AAE700BF004400400014014000380240FB
:1032300000000240F0B583B090F82031012B37D95F
:10324000054600F120031F461846FFF743FF0446DA
:10325000002834D005F1400005F0E7F90646A0F556
:1032600096724B4B9A422ED84A4B9C422FD04A4BD7
:103270009C423DD066600023A360E36023610C2282
:103280006261A361E36195F82031022B47D995F87B
:103290006030452B3DD0652B3BD04F2B01D06F2BA1
:1032A0003DD14FF4C06323614FF48053A36036E0F7
:1032B0003A48FDF78DFB3A48FDF78AFB65E039484F
:1032C000FDF786FB61E03848FDF782FB5DE00023F7
:1032D0000093364B5A6C42F010025A645B6C03F058
:1032E00010030093009B32482060FFF731FFC1E7D5
:1032F000002301932D4B5A6C42F020025A645B6C00
:1033000003F020030193019B2A482060FFF720FF70
:10331000B0E74FF4806323614FF48053A36095F8C6
:103320002031032B03D995F88030322B14D020465E
:1033300000F0EAFDA0B9202384F8413084F842303F
:1033400023681B4A93420FD002F5806293420BD050
:1033500004F05EFE05460AE04FF40053E360E6E742
:103360001548FDF735FB10E004F062FE05463946CE
:103370001248FDF7B5FB31461148FDF7B1FB236854
:103380009A6829460F48FDF7ABFB03B0F0BD00BFBC
:1033900094C52D00140100208400002078B9000895
:1033A000ACB90008D0B9000808BA000800380240DB
:1033B000001001400014014030BA00084CBA000867
:1033C00068BA000880BA0008F0B589B090F82031DA
:1033D000012B4DD9044600F120052846FFF77AFE5F
:1033E00000284CD00368304A93424FD0A2F54C429B
:1033F000934248D002231F4604F140060DF11A0201
:1034000007A9304600F07DFB002842D0274B079AE1
:1034100043F8372003EBC703BDF81A209A8094F8CD
:103420002031022B3AD80120204C04EBC704A071B4
:103430000122E27101A9002301934B608B60CB60F4
:103440000B61BDF81A3001930292079804F000FE58
:10345000A279B2FA82F25209BDF81A10079804F064
:10346000EEFE324629461248FDF73AFB09B0F0BDA0
:103470001048FDF7ADFA1048FDF7AAFAF6E70F4835
:10348000FDF7A6FAF2E701231F46B5E700231F4622
:10349000B2E731460A48FDF723FBE7E704F1600095
:1034A00005F0C3F8C0B2BFE700100140EC060020F1
:1034B00024BB00089CBA0008C4BA0008E4BA00089B
:1034C00004BB0008F0B5C1B090F82031012B0FD932
:1034D00005462030FFF7FEFD064668B103687BB164
:1034E000802200210DEB020005F020FB012411E0F9
:1034F0005048FDF76DFA85E04F48FDF769FA81E025
:103500004E48FDF765FA7DE0013405EB441120A833
:1035100005F032FB95F82031A34209DD012CF3DDE3
:1035200020AF3846FCF78AFE454B1B883B52EBE741
:10353000002420AA18E074290ED109210DF80410E6
:10354000013410E00D210DF8041001340BE05C2172
:103550000DF80410013406E00DF80410013402E007
:103560000DF804300134013213789BB17E2C11DC4C
:103570005C2BF5D151780029F2D001327229E1D0CB
:10358000D9D85C29E3D06E29E6D10A210DF80410C0
:103590000134E8E700220DF80420336802F180428C
:1035A00002F58832934231D0A2F54C4293422BD09F
:1035B00002200746234B03EBC003DB7943BB4FF4E8
:1035C0007A73A2B26946304600F0CEFC05461D4B28
:1035D00003EBC703DB7983B133681B6813F0400F3B
:1035E000FAD0184B03EBC7018A79B2FA82F252097A
:1035F000898853F8370004F022FEB5B921461248F5
:10360000FDF76EFA41B0F0BD0120D2E70020D0E70F
:103610000C4B03EBC0018A79003A18BF012289885C
:1036200053F8300004F00BFEC9E70848FDF7D0F965
:10363000E8E700BF48BB0008E4BA000868BB000820
:10364000D4A50008EC0600209CBB00082CAD0008A7
:103650002DE9F04796B090F82031012B56D9044659
:103660002030FFF737FD0546002853D00368002BB4
:1036700054D090F84130202B54D1002202922B6874
:10368000196802915968029102990392196803918D
:1036900059680391039904921A6804925B68049331
:1036A000049B04F1400004F0C0FF86B2402E00D914
:1036B000402694F82031022B3FD84FF47A78B24656
:1036C000424631465A48FDF70BFA5A4B1B681B68B5
:1036D00013F0400FF9D095F8411095F842206B6C2B
:1036E0005548FDF7FDF9534B1B681B6813F0400F5D
:1036F000F9D04122002105A805F018FA04F0E8FEEF
:1037000007464E48FDF764F9002425E04C48FDF7D4
:103710005FF985E04B48FDF75BF981E04A48FDF72A
:1037200057F97DE090F841104848FDF7D9F920237A
:1037300085F8413085F842309FE704F1600004F0DD
:1037400074FF8046BBE74248FDF7CAF94C4603E0E8
:103750003F48FDF7C5F94C46A6422AD904F0B8FE09
:10376000C01B404525D800238DF807300A230122CD
:103770000DF10701284600F05DFC0028ECD104F1B2
:1037800001091FFA89F99DF8071004F158030DEBA0
:10379000030404F8441CA1F12003DBB25E2BD2D950
:1037A0000D29D5D00A29D3D02A48FDF711F94C4666
:1037B000D2E72948FDF70CF904F08AFEC11B94B347
:1037C0002546002204F158036B4403F8442CA6421A
:1037D00012D9534622462148FDF782F92048FDF7C9
:1037E000F7F805A8FDF7F4F81B48FDF7F1F81D48B8
:1037F000FDF7EEF800240EE0534622461A48FDF786
:103800006FF9EBE704F158036B4413F8441C1748B5
:10381000FDF766F90134A542F4DC0F48FDF7D8F84E
:1038200016B0BDE8F0871248FDF7D2F8F8E700BF00
:103830002CBC0008CC00002058BC000894BC000838
:10384000B0BB0008E4BA0008E0BB000800BC0008F8
:103850009CBC0008A0BC0008A89D0008A4BC0008EF
:10386000F0BC0008F8BC0008CCBC0008F0A60008BA
:10387000B0AD000808B50A48FDF7AAF8094B596829
:103880000948FDF72DF9094B1B682BB1074B596807
:103890000748FDF725F908BD0648FDF799F8FAE74E
:1038A00000BD0008CC00002010BD0008140100205D
:1038B00034BD000854BD000830B589B090F82031FF
:1038C0007BB300F120042046FFF704FC054680B3DB
:1038D000036893B320220021684605F027F92146AA
:1038E0002848FDF7FDF8284C132221462748FDF70C
:1038F000F7F8642313222146284600F035FB00BB6D
:103900004FF4FA7313226946284600F093FBE0B1A6
:1039100003282FD01E48FDF75BF81E48FDF758F826
:1039200005E01D48FDF754F81C48FDF751F809B0B3
:1039300030BD1B48FDF74CF8F9E71A48FDF748F889
:10394000F5E71948FDF744F8F1E78DF81300132265
:1039500069461648FDF7C4F8132269460A4805F07F
:10396000D5F818B91248FDF733F8E0E71148FDF72C
:103970002FF8DCE71048FDF72BF81048FDF728F882
:10398000D5E700BFB0BD0008D0BD0008E4BD000809
:10399000B4BE0008C4BE000870BD00088CBD00089D
:1039A000E4BA000868BB0008FCBD00080CBE0008B3
:1039B00024BE000844BE000868BE00088CBE000893
:1039C0002DE9F04393B090F82031022B2CD9054615
:1039D0002030FFF77FFB074698B30368ABB305F1D0
:1039E0004003994605F1600004F01FFE044695F877
:1039F0002031032B2DD84FF4FA7801AD4B46254AE0
:103A00004221284604F0D6FF2846FCF717FCC6B230
:103A10002CB32246434649461F48FDF761F81F482C
:103A2000FCF7D6FF002520E01D48FCF7D1FF1D481C
:103A3000FCF7CEFF1C48FCF7CBFF1C48FCF7C8FF87
:103A400025E01B48FCF7C4FF21E01A48FCF7C0FF43
:103A50001DE005F1800004F0E8FD8046CDE74FF061
:103A6000FF32D7E7404604F039FD0CB1A5420AD237
:103A70006423324601A9384600F076FA0135002C5D
:103A8000F0D0AC42EED829460B48FDF729F813B028
:103A9000BDE8F08390BF000898BF0008C4BF0008CD
:103AA000D8BE000810BF000838BF000864BF000877
:103AB000E4BA000868BB0008E8BF00080146A0F1AE
:103AC0006103DBB2192B02D8A0F12001C9B2002298
:103AD00000E00132054B03EBC203586820B1034BF1
:103AE00013F832308B42F4D1704700BF28C0000871
:103AF0000F2804D8012303FA00F080B27047002099
:103B00007047F8B5044605460E461746FCF796FB87
:103B1000012820D92378502B16D0702B14D023469F
:103B20001C461878FFF7CAFF3060A8B12046013064
:103B300004F07BFDC0B2FFF7DBFF388068B96B781B
:103B4000302B0CD1012007E0022802D92B4601338B
:103B5000E6E72B46E4E70020F8BD0120FCE7002063
:103B6000FAE7F0B583B004460F461646002534E068
:103B700001342378202BFBD0092BF9D08BB3002301
:103B8000ADF804304FF000028DF806202378ABB179
:103B90006178A1F13002D2B2092A09D9A1F141021A
:103BA000D2B2052A04D9A1F16102D2B2052A05D800
:103BB0008DF8043002348DF8051006E030238DF8BE
:103BC000043014F8013B8DF805301022002101A8C3
:103BD00004F0AAFD6B1C78559DB223780BB1B54259
:103BE000C7D3284603B0F0BDFEE7FEE7FEE7FEE7D9
:103BF000FEE770477047704708B504F05DFC08BDEC
:103C000008B5024800F006FB08BD00BF1401002003
:103C100008B5024800F0FEFA08BD00BFCC00002045
:103C200008B5024800F0F6FA08BD00BF8400002085
:103C300008B54FF40051034804F007FB024803F0B5
:103C40004BFD08BD00080240D404002008B502481E
:103C500003F01AFE08BD00BFD404002008B51020F0
:103C600004F0FCFA08BD000008B5024801F082FA31
:103C700008BD00BF9406002000B583B0002100916C
:103C80000C4B5A6C42F480425A645A6C02F48042E3
:103C90000092009A01911A6C42F080521A641B6CD7
:103CA00003F080530193019B072004F08BFB03B0CA
:103CB00000BD00BF00380240026802F10C0353E867
:103CC000003F23F490730C3242E800310029F3D115
:103CD000026802F1140353E8003F23F00103143299
:103CE00042E800310029F3D1036B012B05D02023DA
:103CF00080F84230002303637047026802F10C032E
:103D000053E8003F23F010030C3242E80031002951
:103D1000F3D1ECE790F84130212B01D0022070471D
:103D20008368B3F5805F17D0036A5A1C02621A7861
:103D300003685A60C38C9BB2013B9BB2C3844BB9EE
:103D40000268D36823F08003D3600268D36843F02D
:103D50004003D360002070470369002BE4D1036A5D
:103D60001B880268C3F308035360036A02330362CB
:103D7000E0E7000010B504460268136923F44053DD
:103D8000C1680B431361836802691A4343691A438C
:103D9000C3691A430168CB6823F4164323F00C036C
:103DA0001343CB600268536923F4407381690B436A
:103DB00053610368314A934206D002F58062934210
:103DC00002D004F025F901E004F032F9E369B3F51B
:103DD000004F29D00021031849411B1841F100016F
:103DE000C90041EA5371DB00181863684FEA830287
:103DF0004FEA937341F10001FCF77AFA204AA2FBE3
:103E000000314909642303FB11031B013233A2FB78
:103E100003235B0903F0F00202EB011203F00F032E
:103E2000216813448B6010BD0023021843EB03018B
:103E3000121841F10001C90041EA5271D200101874
:103E400041F10001626892185B41FCF751FA0C4A9B
:103E5000A2FB00314909642303FB1103DB00323369
:103E6000A2FB03235B095A0002F4F87202EB011271
:103E700003F00703216813448B60D4E7001001406E
:103E80001F85EB512DE9F04182B004460D461646E0
:103E90009846089F23681B6835EA03030CBF4FF060
:103EA000010C4FF0000CB44526D1B7F1FF3FF1D023
:103EB00004F00EFB4346C01AB84221D817B323685A
:103EC000DA6812F0040FE5D0802DE3D0402DE1D068
:103ED0001A6812F0080FDDD0002501951A680192CA
:103EE0005B680193019B2046FFF7E6FE08236364AD
:103EF00084F84050012000E0002002B0BDE8F081CD
:103F00000320FAE70320F8E760B310B5044690F801
:103F1000413013B3242384F841302268D36823F45A
:103F20000053D3602046FFF725FF2268136923F46E
:103F3000904313612268536923F02A035361226876
:103F4000D36843F40053D36000206064202384F8D6
:103F5000413084F84230606310BD80F84030FCF797
:103F60002FFCD7E7012070472DE9F04184B01E46B1
:103F700090F84130202B57D104460D46002957D0E8
:103F800003920AB9012050E000234364212380F802
:103F9000413004F09DFA0746039BA384E384A368A1
:103FA000B3F5805F02D00023984616E023693BB347
:103FB0000023984611E0202384F84130032034E0A8
:103FC000424632F8023B90462268C3F3080353602E
:103FD000E28C92B2013A92B2E284E38C9BB293B14A
:103FE00000963B46002280212046FFF74BFF002829
:103FF000E1D1002DE4D015F8012B23685A60E7E7E2
:10400000A8461D46E9E700963B460022402120468F
:10401000FFF738FF18B9202384F8413005E020234A
:1040200084F84130032000E0022004B0BDE8F081B4
:104030000120FAE72DE9F04182B01E4690F84230A7
:10404000202B5AD104460D461746002959D00AB9EB
:10405000012053E000234364222280F842200363BE
:1040600004F036FA8046A785E785A368B3F5805F3C
:1040700002D000231F461CE02369002B35D000230B
:104080001F4616E0202384F84230032036E02368E0
:104090005B68C3F308033A4622F8023B174603E085
:1040A00023685B682B700135E28D92B2013A92B2BF
:1040B000E285E38D9BB2DBB10096434600222021CE
:1040C0002046FFF7DFFE0028DCD1002DDFD0A368FB
:1040D000B3F5805FE4D013B92369002BE0D02368E7
:1040E0005B6803F07F032B70DDE72F461D46E0E79A
:1040F000202384F84230002000E0022002B0BDE816
:10410000F0810120FAE7704708B50168CA6822F01B
:104110004002CA60202280F84120FFF7F4FF00200F
:1041200008BD704708B5806B0023C385FFF7F9FF12
:1041300008BD704790F84230222B67D18368B3F5F1
:10414000805F4DD0826AB3F5805F04D0002B54D1DC
:104150000369002B51D103685B681370836A0133D4
:104160008362C38D9BB2013B9BB2C385002B4FD1B1
:1041700000B583B00268D36823F02003D3600268DF
:10418000D36823F48073D3600268536923F001037A
:104190005361202380F8423000234363036B012BDB
:1041A00031D100230363026802F10C0353E8003F9E
:1041B00023F010030C3242E800310029F3D10368E8
:1041C0001A6812F0100F05D001911A6801925B680D
:1041D0000193019B818DFFF7ACFF002003B000BD70
:1041E0000269002AAED1826A03685B68C3F30803E0
:1041F0001380836A02338362B3E703685B6803F06A
:104200007F031370AAE7FCF7B3FBE6E702207047D1
:104210000020704710B582B0044602681368D06869
:10422000516913F00F0F09D113F0200F0CD010F0CB
:10423000200F09D02046FFF77DFF16E011F00101A5
:1042400015D110F4907F12D1216B012979D013F090
:10425000800F03D010F0800F40F01F8113F0400F4B
:1042600003D010F0400F40F01C8102B010BD13F0DD
:10427000010F06D010F4807F03D0626C42F001027F
:10428000626413F0040F04D019B1626C42F00202B0
:10429000626413F0020F04D019B1626C42F00402A0
:1042A000626413F0080F07D010F0200F00D119B18D
:1042B000626C42F008026264626C002AD5D013F08E
:1042C000200F02D010F0200F29D123685B6903F082
:1042D0004003626C12F0080F00D163B32046FFF771
:1042E000EBFC23685B6913F0400F20D0226802F1D9
:1042F000140353E8003F23F04003143242E8003136
:104300000029F3D1E36B73B1684A1A65E06B03F0DF
:10431000FDFF0028A9D0E06B036D9847A5E7204674
:10432000FFF708FFD1E72046FFF7FBFE9DE7204699
:10433000FFF7F7FE99E72046FFF7F3FE00236364DB
:1043400093E713F0100F82D010F0100F3FF47FAFFF
:10435000002301931368019353680193019B5369F0
:1043600013F0400F5ED0E26B13685B689BB2002BCA
:1043700049D0A18D994246D9E385D369B3F5807FB1
:1043800036D0226802F10C0353E8003F23F4807317
:104390000C3242E800310029F3D1226802F1140303
:1043A00053E8003F23F00103143242E800310029B2
:1043B000F3D1226802F1140353E8003F23F04003D5
:1043C000143242E800310029F3D1202384F842302E
:1043D0002163226802F10C0353E8003F23F010032D
:1043E0000C3242E800310029F3D1E06B03F044FFC6
:1043F00002236363A18DE38D9BB2C91A89B2204663
:10440000FFF797FE31E7A18D99427FF42EAFD36974
:10441000B3F5807F7FF429AF022363632046FFF763
:1044200088FE22E7A18DE38D9BB2C91A89B2E38D84
:104430009BB2002B3FF419AF00293FF416AF22685E
:1044400002F10C0353E8003F23F490730C3242E86E
:1044500000300028F3D1226802F1140353E8003F32
:1044600023F00103143242E800300028F3D1202366
:1044700084F842302063226802F10C0353E8003FC5
:1044800023F010030C3242E800300028F3D102235D
:1044900063632046FFF74DFEE7E62046FFF73AFC50
:1044A000E3E62046FFF730FEDFE600BF25410008C7
:1044B00081628285C28500234364222380F84230D2
:1044C000036923B10268D36843F48073D360026840
:1044D000536943F0010353610268D36843F020033A
:1044E000D3600020704708B590F84230202B08D1E7
:1044F00049B10AB9012008BD00230363FFF7D8FFC3
:10450000F9E70220F7E70120F5E7000082B0002379
:104510000193164B1B68164AA2FB03235B0A642215
:1045200002FB03F30093009B43B1009B013B00930C
:1045300003689B6813F0020FF5D003E0436D43F06E
:10454000400343650268136823F040031360026868
:10455000536823F0E00353600368DB680193019B19
:10456000072380F8513002B0704700BF08000020D8
:10457000F11976050268536823F0800353600268DE
:10458000136823F040031360072380F8513070470D
:104590002DE9F04383B004460F4616461D4603F04E
:1045A00097FF0A9B1B1A03EB050803F091FF814656
:1045B000284B1B68C3F3CB3308FB03F30193236839
:1045C0009B6837EA03030CBF01230023B3423DD0AD
:1045D000B5F1FF3FF3D003F07BFF4B46C01A4045D7
:1045E00003D2019B73BB9846E9E72268536823F026
:1045F000E00353606368B3F5827F0BD0A36AB3F521
:10460000005F14D0012384F85130002384F8503027
:1046100003201CE0A368B3F5004F02D0B3F5806F10
:10462000ECD12268136823F040031360E6E72268A8
:10463000136823F4005313602268136843F4005393
:104640001360DFE7019B013B0193B8E7002003B053
:10465000BDE8F0830800002070B584B004460B4626
:104660000D461646009201220221FFF791FFD0B9B4
:10467000174B1B68174AA2FB03235B0D4FF47A729A
:1046800002FB03F303936368B3F5827F11D0039BAE
:104690003BB1039B013B039323689B6813F0800F9E
:1046A000F5D104B070BD636D43F020036365032052
:1046B000F7E700962B46002280212046FFF768FF8F
:1046C0000028EED0636D43F0200363650320E8E724
:1046D00008000020819F5E1610B582B004460B468C
:1046E0004168B1F5827F14D06168B1F5827F2AD12B
:1046F000A168B1F5806F19D0009200228021204678
:10470000FFF746FF30B3636D43F02003636503207A
:1047100020E08168B1F5004F02D0B1F5806FE3D1A0
:104720002068016821F040010160DDE7009200226D
:1047300001212046FFF72CFF60B1636D43F0200399
:104740006365032006E00092002201212046FFF766
:104750001FFF08B902B010BD636D43F0200363650D
:104760000320F7E7704700285AD010B50446436A83
:1047700033B94368B3F5827F05D00023C36102E0FB
:104780000023036143610023A36294F85130002B9E
:1047900040D0022384F851302268136823F040038C
:1047A0001360636803F48273A26802F40442134343
:1047B000E26802F400621343226902F0020213432A
:1047C000626902F001021343A26902F4007213430A
:1047D000E26902F038021343226A02F080021343B6
:1047E000A26A02F40052216813430B60638B03F04A
:1047F0000403626A02F01002216813434B602268CE
:10480000D36923F40063D36100206065012384F839
:10481000513010BD84F850302046FFF7A3FFB8E7B1
:10482000012070472DE9F04383B004468946904645
:104830001D4603F04DFE94F85130012B40F0CD8021
:104840000646DFB24946002900F0C8804246002AE9
:1048500000F0C48094F85030012B00F0C380012395
:1048600084F85030032384F8513000236365C4F882
:104870003090A4F83480A4F83680A363A387E3873C
:1048800063642364A368B3F5004F1ED023681A68DD
:1048900012F0400F03D11A6842F040021A60E36838
:1048A000B3F5006F1CD0636813B14346012B5FD191
:1048B000226B236812781A73236B01332363E38E10
:1048C0009BB2013B9BB2E38652E02268136823F05F
:1048D000400313602268136843F480431360D5E7F4
:1048E000636813B14346012B15D1226B23681288EC
:1048F000DA60236B02332363E38E9BB2013B9BB2EE
:10490000E38608E003F0E4FD801BA84202D3B5F182
:10491000FF3F15D1A5B1E38E9BB2002B42D0236897
:104920009A6812F0020FEDD0226B1288DA60236BC6
:1049300002332363E38E9BB2013B9BB2E386EAE73B
:10494000012384F85130002384F85030032745E0D8
:10495000226B12781A73236B01332363B4F836C0C9
:104960001FFA8CFC0CF1FF3C1FFA8CFCA4F836C03B
:10497000E38E9BB2B3B123689A6812F0020FE7D1BD
:1049800003F0A6FD801BA84202D3B5F1FF3F01D181
:10499000002DEDD1012384F85130002384F85030EC
:1049A00003271BE0324629462046FFF755FE08B193
:1049B00020236365A36833B901932368DA68019201
:1049C0009B680193019B012384F85130002384F8F4
:1049D0005030636D13B91F4600E00227384603B01C
:1049E000BDE8F0830227F9E72DE9F04383B00446E0
:1049F0000F46914698460A9D03F06AFD064694F8D4
:104A000051306268012B0BD0D9B2B2F5827F40F0F1
:104A10000D81A368002B40F00D81042940F00C812A
:104A2000002F00F00B814B46002B00F0098143461C
:104A3000002B00F0078194F85030012B00F0048126
:104A4000012384F8503094F85130042B02D0052310
:104A500084F8513000236365C4F83890A4F83E8090
:104A6000A4F83C802763A4F83680A4F8348023643B
:104A7000636423681A6812F0400F03D11A6842F089
:104A800040021A60E368B3F5006F13D0636813B196
:104A90004346012B0BD1226B236812781A73236BC8
:104AA00001332363E38E9BB2013B9BB2E386012378
:104AB0001F4674E0636813B14346012B0BD1226B90
:104AC00023681288DA60236B02332363E38E9BB280
:104AD000013B9BB2E38601231F461BE022689368DB
:104AE00013F001030ED0E18F89B259B1D168A26BE6
:104AF0001180A26B0232A263E28F92B2013A92B2AB
:104B0000E2871F4603F0E4FC801BA84202D3B5F104
:104B1000FF3F1FD1E38E9BB21BB9E38F9BB2002BEB
:104B200064D023689A6812F0020FD7D0E28E92B256
:104B3000002AD3D0002FD1D0226B1288DA60236BE9
:104B400002332363E38E9BB2013B9BB2E3860023D7
:104B50001F46C3E7012384F85130002384F8503006
:104B6000032064E02268936813F001030ED0E18F04
:104B700089B259B1D168A26B1170A26B0132A263E4
:104B8000E28F92B2013A92B2E2871F4603F0A0FC94
:104B9000831BAB4202D3B5F1FF3F1FD1F5B1E38ECA
:104BA0009BB213B9E38F9BB203B323689A6812F0E8
:104BB000020FD7D0E28E92B2002AD3D0002FD1D0EC
:104BC000226B12781A73236B01332363E38E9BB23B
:104BD000013B9BB2E38600231F46C3E7012384F811
:104BE0005130002384F85030032020E0324629461B
:104BF0002046FFF731FD90B9A36833B901932368CC
:104C0000DA6801929B680193019B012384F851307B
:104C1000002384F85030636D4BB1012007E020235E
:104C20006365002384F85030012000E0022003B0C7
:104C3000BDE8F0830220FAE70220F8E70120F6E75A
:104C40000120F4E70120F2E70220F0E72DE9F0432C
:104C500083B01D4690F85130012B40F0B2800446DD
:104C600088469146DEB2002900F0AC80002A00F0B0
:104C7000A9804368B3F5827F01D1836853B303F001
:104C800027FC074694F85030012B00F09F80012349
:104C900084F85030042384F8513000236365C4F84D
:104CA0003880A4F83C90A4F83E902363A386E38662
:104CB00023646364A368B3F5004F15D023681A68B2
:104CC00012F0400F03D11A6842F040021A60E36804
:104CD000F3B143E0042380F85130009513460A46AF
:104CE000FFF782FE06466DE02268136823F040035A
:104CF00013602268136823F480431360DEE703F037
:104D0000E7FBC01BA84202D3B5F1FF3F15D1A5B107
:104D1000E38F9BB2002B42D023689A6812F0010FF8
:104D2000EDD0A26B1B7B1370A36B0133A363E38FE6
:104D30009BB2013B9BB2E387EAE7012384F8513041
:104D4000002384F8503003263CE003F0C1FBC01B75
:104D5000A84202D3B5F1FF3F19D1C5B1E38F9BB291
:104D6000EBB123689A6812F0010FEED0DA68A36BFA
:104D70001A80A36B0233A363B4F83EC01FFA8CFC05
:104D80000CF1FF3C1FFA8CFCA4F83EC0E6E70123BF
:104D900084F85130002384F85030032612E03A465C
:104DA00029462046FFF798FC08B1202363650123BC
:104DB00084F85130002384F85030636D13B91E46D7
:104DC00000E00226304603B0BDE8F0830226F9E792
:104DD00030B5154690F851C0D0F804E0BCF1010F91
:104DE00009D05FFA8CF2BEF5827F44D18468002C32
:104DF00043D1042A43D1002943D0002D43D0002BB6
:104E000043D090F850C0BCF1010F40D04FF0010CDE
:104E100080F850C090F851C0BCF1040F03D04FF09F
:104E2000050C80F851C04FF0000CC0F854C001636D
:104E30008386C38685638387C387C368B3B1154BF5
:104E40000364154B436403681A6812F0400F03D1E2
:104E50001A6842F040021A60002380F8503001685E
:104E60004A6842F0E0024A60184605E00B4B0364D2
:104E70000B4B4364E7E7022030BD0220FCE7022031
:104E8000FAE70120F8E70120F6E70120F4E7022025
:104E9000F2E700BF3D51000805510008CD50000861
:104EA0009550000810B584B004464A4B1B684A4A26
:104EB000A2FB03235B0A642202FB03F30293029B1F
:104EC00003930268536823F0200353600268536819
:104ED00013F0800F11D0414B4364039B3BB1039B04
:104EE000013B039394F85130072BF6D103E0636D37
:104EF00043F040036365029B0393536813F0400F34
:104F000011D0374B2364039B3BB1039B013B0393BD
:104F100094F85130072BF6D103E0636D43F0400362
:104F20006365029B0393536813F0020F1DD0A36CBB
:104F3000DBB100221A65A06C03F09EF908B1402392
:104F400063652268536823F002035360039B43B1F7
:104F5000039B013B039323689B6813F0020FF5D07A
:104F600003E0636D43F04003636523685B6813F0FF
:104F7000010F13D0E36C8BB100221A65E06C03F0D3
:104F80007BF908B1402363652268136823F040036E
:104F900013602268536823F0010353600023E38702
:104FA000E386636D402B12D00020606500220092E2
:104FB0002368D968009199680091009901929B68D3
:104FC0000193019B012384F8513004B010BD0120EE
:104FD000ECE700BF08000020F119760575450008D0
:104FE0000D4500087047000010B582B00446274BFD
:104FF0001B68274AA2FB03235B0A642202FB03F31C
:10500000019303F065FA024621684B6823F0200300
:105010004B60019B43B1019B013B019323689B685B
:1050200013F0020FF5D003E0636D43F020036365D6
:1050300064212046FFF710FB18B1636D43F0200395
:105040006365A36833B900932368DA6800929B68AC
:105050000093009B636D93B994F85130042B07D0F3
:10506000012384F851302046FDF736FE02B010BD12
:10507000012384F851302046FFF7B4FFF6E70123FF
:1050800084F851302046FDF79DFEEFE70800002030
:10509000F119760508B5026B036812781A73036B71
:1050A00001330363C38E9BB2013B9BB2C386C38EA5
:1050B0009BB23BB90268536823F080035360C38FEF
:1050C0009BB203B108BDFFF78FFFFBE708B502688D
:1050D000836B127B1A70836B01338363C38F9BB224
:1050E000013B9BB2C387C38F9BB23BB90268536835
:1050F00023F060035360C38E9BB203B108BDFFF77A
:1051000073FFFBE708B5026B03681288DA60036B74
:1051100002330363C38E9BB2013B9BB2C386C38E33
:105120009BB23BB90268536823F080035360C38F7E
:105130009BB203B108BDFFF757FFFBE708B5036853
:10514000DA68836B1A80836B02338363C38F9BB2ED
:10515000013B9BB2C387C38F9BB23BB902685368C4
:1051600023F040035360C38E9BB203B108BDFFF729
:105170003BFFFBE710B584B00446026851689368B2
:10518000C3F3801013F0400F05D113F0010F02D0CC
:1051900011F0400F6DD113F0020F02D011F0800F0B
:1051A0006BD1C3F3401C13F0200F03D110B913F4DB
:1051B000807F65D011F0200F62D070B194F851005B
:1051C00003285FD0606D40F004006065002000900F
:1051D000D0680090906800900098BCF1000F0CD04F
:1051E000606D40F0010060650020029090680290C0
:1051F000106820F040001060029A13F4807F09D0FC
:10520000636D43F0080363650023039323689B6881
:105210000393039B636D002B32D02268536823F005
:10522000E0035360012384F8513011F0020F02D1E2
:1052300011F0010F2ED02268536823F0030353604E
:10524000E36C4BB1154A1A65E06C03F05FF818B1D6
:10525000636D43F040036365A36C8BB10F4A1A651D
:10526000A06C03F053F858B1636D43F040036365DD
:1052700006E0236C2046984702E0636C204698477E
:1052800004B010BD00230193D36801939368019388
:10529000019BF5E72046FDF795FDF1E7A1520008D7
:1052A00008B5806B0023C387C386FDF78BFD08BD5F
:1052B0007047000070B584B00446514B1B68514ADA
:1052C000A2FB03235B0A642202FB03F30293029B0B
:1052D00003930268536823F0200353600268536805
:1052E00013F0800F11D0484B4364039B3BB1039BE9
:1052F000013B039394F85130072BF6D103E0636D23
:1053000043F040036365029B0393536813F0400F1F
:1053100011D03E4B2364039B3BB1039B013B0393A2
:1053200094F85130072BF6D103E0636D43F040034E
:105330006365029B0393A36C2BB1526812F0020FBA
:105340001CD0334A1A65E36C33B12268526812F0FC
:10535000010F16D02F4A1A6523685B6813F0020FFD
:1053600012D0A06C38B302F0D1FF38B3A36C002286
:105370001A654023636501231E4607E000221A6573
:10538000E1E700221A65E7E701231E4623685B6810
:1053900013F0010F0AD0E06C40B102F0B7FF0546F0
:1053A00030B1E36C00221A654023636546B9354687
:1053B000284604B070BD01231E46E7E70646E5E730
:1053C0000023E387E386636D402B15D000236365DC
:1053D0001D46002200922368D968009199680091C7
:1053E000009901929B680193019B012384F851303D
:1053F0002046FFF75DFFDBE701231D46E9E700BF1D
:1054000008000020F1197605754500080D450008D3
:10541000915400081954000810B582B0846B2268BA
:10542000136823F040031360E36C00221A652268BE
:10543000536823F00103536003F04AF802466421E5
:105440002046FFF709F918B1636D43F04003636527
:10545000A36C0BB11B6DC3B9E387E386636D402B6F
:1054600001D000236365002200922368D96800916F
:1054700099680091009901929B680193019B012317
:1054800084F851302046FFF713FF02B010BD000032
:1054900000B585B0806B836C00221A651D4B1B68BC
:1054A0001D4AA2FB03235B0A642202FB03F303935E
:1054B0000268536823F002035360039B43B1039BCC
:1054C000013B039303689B6813F0020FF5D003E0E0
:1054D000436D43F040034365C36C0BB11B6DBBB917
:1054E000C387C386436D402B01D000234365002250
:1054F00001920368D968019199680191019902921A
:105500009B680293029B012380F85130FFF7D0FE85
:1055100005B000BD08000020F119760503685A693E
:1055200012F0800F01D000221A61704790F83E30CF
:10553000402B10D00369B3F5804F1BD0036D002BB7
:1055400038D1436CC3F3C813026803F0060343F079
:10555000F00313617047036D2BB9436C026803F0CD
:10556000FE0313617047436C026843F00103DBB232
:105570001361704790F83D30212B0FD0436C0268C7
:1055800043F00103DBB21361436B6BB1DB6B5BB1C7
:105590000268536843F4006353607047436C0268C9
:1055A00003F0FE031361EFE7836B33B1DB6B002B7A
:1055B000EED102E0036D012B00D07047436CC3F3C2
:1055C000C813026803F0060343F0F1031361F4E724
:1055D000436C0268DBB21361436B3BB1DB6B2BB1F5
:1055E0000268536843F4006353607047836B002B79
:1055F000FBD0DB6B002BF3D1F7E78AB090F83E309D
:10560000C16AD0F830C090F83D20222A09D000238A
:10561000099303685A6909929B690993099B0AB027
:105620007047DBB2026D0AB9402B17D0036D1BB96E
:105630000369B3F5404F19D0438D9BB2002B25D1A0
:10564000029303685A6902929A690292029A1A684E
:1056500042F400721A6000230365E0E700920368D9
:105660005A6900929B690093009BD8E7002301933D
:1056700003685A6901929A690192019A1A6842F480
:1056800080721A60036D01330365C8E7438D9BB2D6
:10569000012B25D0438D9BB2022B7CD0026813686E
:1056A00043F48063136003685A6812F4006F0ED0ED
:1056B00011F5803F07D0012905D0082903D0102912
:1056C00001D0202903D15A6842F480525A60002345
:1056D000089303685A6908929B690893089BBAE784
:1056E00011F5803F12D0082935D0202933D0BCF1E4
:1056F000120F2ED0042940D002293ED010293CD0D0
:105700000268136823F4806313603BE00268136847
:1057100023F48063136003685A6812F4006F0CD09E
:105720001A6822F480621A600023039303685A699E
:1057300003929B690393039B8DE7002204925A69AD
:1057400004929A690492049A1A6842F400721A60E8
:1057500081E70129D0D00268136823F480631360C5
:105760000023069303685A6906929A690692069A7C
:105770001A6842F400721A606DE70268136843F415
:10578000806313600023059303685A6905929B693F
:105790000593059B5FE704290ED002290CD0102940
:1057A0000AD00268136823F48063136002681368E8
:1057B00043F40063136004E00268136843F48063F9
:1057C000136003685A6812F4006F0ED011F5803F21
:1057D00007D0012905D0082903D0102901D020299C
:1057E00003D15A6842F480525A6000230793036839
:1057F0005A6907929B690793079B2CE7438D9BB2DD
:105800005BB1426A036812781A61436A01334362EA
:10581000438D9BB2013B9BB243857047438D9BB246
:105820005BB103681A69436A1A70436A01334362C1
:10583000438D9BB2013B9BB24385704782B00023EE
:1058400001930E4B1B68DB080D4AA2FB03231B0AC6
:1058500003EB83030193019B013B0193019B33B154
:1058600003681B6813F4007FF5D1002004E0036C8B
:1058700043F020030364012002B0704708000020B9
:1058800089B5F81403685A6912F4806F01D10020B9
:1058900070476FF480625A6100230363202280F80E
:1058A0003D2080F83E30026C42F00402026480F831
:1058B0003C3001207047C36AB3F52A0F04D0C36A95
:1058C000B3F12A4F03D070470123C3627047082306
:1058D000C362F8E72DE9F04106460C4617469846A4
:1058E0003BE002F0F5FD069BC01A404502D8B8F136
:1058F000000F32D1012D18D033689B6924EA0303CD
:105900009BB2B3FA83F35B099F4226D10023336332
:10591000202286F83D2086F83E30326C42F020028C
:10592000326486F83C30012027E033685B6924EA62
:1059300003039BB2B3FA83F35B09E5E733685B6962
:1059400024EA030C1FFA8CFCBCFA8CFC4FEA5C1CAA
:10595000674511D1B8F1FF3FC3D1C4F30745012D0D
:10596000ECD033689B6924EA030C1FFA8CFCBCFA68
:105970008CFC4FEA5C1CEBE70020BDE8F0812DE9D0
:10598000F04104460D461746984652E01A6842F424
:1059900000721A6023686FF480625A6100232363E7
:1059A000202284F83D2084F83E30226C42F004022C
:1059B000226484F83C30012049E002F089FD43462E
:1059C000C01AB84201D8002F33D1012E17D0236856
:1059D0009B6925EA03039BB2003B18BF012343B335
:1059E00000232363202284F83D2084F83E30226C7B
:1059F00042F02002226484F83C30012027E0236832
:105A00005B6925EA03039BB2003B18BF0123E6E76D
:105A100023689B6925EA03039BB2003B18BF01235F
:105A2000A3B123685A6912F4806FAFD1B7F1FF3F79
:105A3000C3D1C5F30746012EEAD123685B6925EA85
:105A400003039BB2003B18BF0123E9E71846BDE8FA
:105A5000F0810000F0B583B004460E4617461D469F
:105A6000C36A082B0DD0012B0BD013F5803F08D053
:105A7000036B122B0AD10268136843F4807313601E
:105A800004E02268136843F48073136000953B467A
:105A900000224FF001112046FFF71CFF80B9236957
:105AA000B3F5804F16D1236806F0FE021A612B462B
:105AB0003A4613492046FFF762FFF8B903B0F0BD3C
:105AC00023681B6813F4807F02D04FF400732364B3
:105AD0000320F3E7F311226803F0060343F0F00319
